{
  "_format": "hh-sol-artifact-1",
  "contractName": "MyEpicNFT",
  "sourceName": "contracts/MyEpicNFT.sol",
  "abi": [
    {
      "inputs": [],
      "stateMutability": "nonpayable",
      "type": "constructor"
    },
    {
      "anonymous": false,
      "inputs": [
        {
          "indexed": true,
          "internalType": "address",
          "name": "owner",
          "type": "address"
        },
        {
          "indexed": true,
          "internalType": "address",
          "name": "approved",
          "type": "address"
        },
        {
          "indexed": true,
          "internalType": "uint256",
          "name": "tokenId",
          "type": "uint256"
        }
      ],
      "name": "Approval",
      "type": "event"
    },
    {
      "anonymous": false,
      "inputs": [
        {
          "indexed": true,
          "internalType": "address",
          "name": "owner",
          "type": "address"
        },
        {
          "indexed": true,
          "internalType": "address",
          "name": "operator",
          "type": "address"
        },
        {
          "indexed": false,
          "internalType": "bool",
          "name": "approved",
          "type": "bool"
        }
      ],
      "name": "ApprovalForAll",
      "type": "event"
    },
    {
      "anonymous": false,
      "inputs": [
        {
          "indexed": false,
          "internalType": "address",
          "name": "sender",
          "type": "address"
        },
        {
          "indexed": false,
          "internalType": "uint256",
          "name": "tokenId",
          "type": "uint256"
        }
      ],
      "name": "NewEpicNFTMinted",
      "type": "event"
    },
    {
      "anonymous": false,
      "inputs": [
        {
          "indexed": true,
          "internalType": "address",
          "name": "from",
          "type": "address"
        },
        {
          "indexed": true,
          "internalType": "address",
          "name": "to",
          "type": "address"
        },
        {
          "indexed": true,
          "internalType": "uint256",
          "name": "tokenId",
          "type": "uint256"
        }
      ],
      "name": "Transfer",
      "type": "event"
    },
    {
      "inputs": [
        {
          "internalType": "address",
          "name": "to",
          "type": "address"
        },
        {
          "internalType": "uint256",
          "name": "tokenId",
          "type": "uint256"
        }
      ],
      "name": "approve",
      "outputs": [],
      "stateMutability": "nonpayable",
      "type": "function"
    },
    {
      "inputs": [
        {
          "internalType": "address",
          "name": "owner",
          "type": "address"
        }
      ],
      "name": "balanceOf",
      "outputs": [
        {
          "internalType": "uint256",
          "name": "",
          "type": "uint256"
        }
      ],
      "stateMutability": "view",
      "type": "function"
    },
    {
      "inputs": [
        {
          "internalType": "uint256",
          "name": "tokenId",
          "type": "uint256"
        }
      ],
      "name": "getApproved",
      "outputs": [
        {
          "internalType": "address",
          "name": "",
          "type": "address"
        }
      ],
      "stateMutability": "view",
      "type": "function"
    },
    {
      "inputs": [
        {
          "internalType": "address",
          "name": "owner",
          "type": "address"
        },
        {
          "internalType": "address",
          "name": "operator",
          "type": "address"
        }
      ],
      "name": "isApprovedForAll",
      "outputs": [
        {
          "internalType": "bool",
          "name": "",
          "type": "bool"
        }
      ],
      "stateMutability": "view",
      "type": "function"
    },
    {
      "inputs": [],
      "name": "makeAnEpicNFT",
      "outputs": [],
      "stateMutability": "nonpayable",
      "type": "function"
    },
    {
      "inputs": [],
      "name": "name",
      "outputs": [
        {
          "internalType": "string",
          "name": "",
          "type": "string"
        }
      ],
      "stateMutability": "view",
      "type": "function"
    },
    {
      "inputs": [
        {
          "internalType": "uint256",
          "name": "tokenId",
          "type": "uint256"
        }
      ],
      "name": "ownerOf",
      "outputs": [
        {
          "internalType": "address",
          "name": "",
          "type": "address"
        }
      ],
      "stateMutability": "view",
      "type": "function"
    },
    {
      "inputs": [
        {
          "internalType": "uint256",
          "name": "tokenId",
          "type": "uint256"
        }
      ],
      "name": "pickRandomColor",
      "outputs": [
        {
          "internalType": "string",
          "name": "",
          "type": "string"
        }
      ],
      "stateMutability": "view",
      "type": "function"
    },
    {
      "inputs": [
        {
          "internalType": "uint256",
          "name": "tokenId",
          "type": "uint256"
        }
      ],
      "name": "pickRandomFirstWord",
      "outputs": [
        {
          "internalType": "string",
          "name": "",
          "type": "string"
        }
      ],
      "stateMutability": "view",
      "type": "function"
    },
    {
      "inputs": [
        {
          "internalType": "uint256",
          "name": "tokenId",
          "type": "uint256"
        }
      ],
      "name": "pickRandomSecondWord",
      "outputs": [
        {
          "internalType": "string",
          "name": "",
          "type": "string"
        }
      ],
      "stateMutability": "view",
      "type": "function"
    },
    {
      "inputs": [
        {
          "internalType": "uint256",
          "name": "tokenId",
          "type": "uint256"
        }
      ],
      "name": "pickRandomThirdWord",
      "outputs": [
        {
          "internalType": "string",
          "name": "",
          "type": "string"
        }
      ],
      "stateMutability": "view",
      "type": "function"
    },
    {
      "inputs": [
        {
          "internalType": "address",
          "name": "from",
          "type": "address"
        },
        {
          "internalType": "address",
          "name": "to",
          "type": "address"
        },
        {
          "internalType": "uint256",
          "name": "tokenId",
          "type": "uint256"
        }
      ],
      "name": "safeTransferFrom",
      "outputs": [],
      "stateMutability": "nonpayable",
      "type": "function"
    },
    {
      "inputs": [
        {
          "internalType": "address",
          "name": "from",
          "type": "address"
        },
        {
          "internalType": "address",
          "name": "to",
          "type": "address"
        },
        {
          "internalType": "uint256",
          "name": "tokenId",
          "type": "uint256"
        },
        {
          "internalType": "bytes",
          "name": "_data",
          "type": "bytes"
        }
      ],
      "name": "safeTransferFrom",
      "outputs": [],
      "stateMutability": "nonpayable",
      "type": "function"
    },
    {
      "inputs": [
        {
          "internalType": "address",
          "name": "operator",
          "type": "address"
        },
        {
          "internalType": "bool",
          "name": "approved",
          "type": "bool"
        }
      ],
      "name": "setApprovalForAll",
      "outputs": [],
      "stateMutability": "nonpayable",
      "type": "function"
    },
    {
      "inputs": [
        {
          "internalType": "bytes4",
          "name": "interfaceId",
          "type": "bytes4"
        }
      ],
      "name": "supportsInterface",
      "outputs": [
        {
          "internalType": "bool",
          "name": "",
          "type": "bool"
        }
      ],
      "stateMutability": "view",
      "type": "function"
    },
    {
      "inputs": [],
      "name": "symbol",
      "outputs": [
        {
          "internalType": "string",
          "name": "",
          "type": "string"
        }
      ],
      "stateMutability": "view",
      "type": "function"
    },
    {
      "inputs": [
        {
          "internalType": "uint256",
          "name": "tokenId",
          "type": "uint256"
        }
      ],
      "name": "tokenURI",
      "outputs": [
        {
          "internalType": "string",
          "name": "",
          "type": "string"
        }
      ],
      "stateMutability": "view",
      "type": "function"
    },
    {
      "inputs": [
        {
          "internalType": "address",
          "name": "from",
          "type": "address"
        },
        {
          "internalType": "address",
          "name": "to",
          "type": "address"
        },
        {
          "internalType": "uint256",
          "name": "tokenId",
          "type": "uint256"
        }
      ],
      "name": "transferFrom",
      "outputs": [],
      "stateMutability": "nonpayable",
      "type": "function"
    }
  ],
  "bytecode": "0x608060405260405180610100016040528060d38152602001620045d160d3913960089080519060200190620000369291906200082c565b50604051806080016040528060568152602001620046a46056913960099080519060200190620000689291906200082c565b506040518060c001604052806040518060400160405280600781526020017f50696467656f740000000000000000000000000000000000000000000000000081525081526020016040518060400160405280600881526020017f436c656661626c6500000000000000000000000000000000000000000000000081525081526020016040518060400160405280600881526020017f506172617365637400000000000000000000000000000000000000000000000081525081526020016040518060400160405280600781526020017f4475677472696f0000000000000000000000000000000000000000000000000081525081526020016040518060400160405280600781526020017f4c616e7475726e0000000000000000000000000000000000000000000000000081525081526020016040518060400160405280600681526020017f5377696e75620000000000000000000000000000000000000000000000000000815250815250600a906006620001e6929190620008bd565b506040518060c001604052806040518060400160405280600881526020017f20476162756d6f6e00000000000000000000000000000000000000000000000081525081526020016040518060400160405280600681526020017f4167756d6f6e000000000000000000000000000000000000000000000000000081525081526020016040518060400160405280600781526020017f4269796f6d6f6e0000000000000000000000000000000000000000000000000081525081526020016040518060400160405280600881526020017f54656e746f6d6f6e00000000000000000000000000000000000000000000000081525081526020016040518060400160405280600681526020017f50616c6d6f6e000000000000000000000000000000000000000000000000000081525081526020016040518060400160405280600681526020017f5665656d6f6e0000000000000000000000000000000000000000000000000000815250815250600b90600662000364929190620008bd565b506040518060c001604052806040518060400160405280600581526020017f536f6e696300000000000000000000000000000000000000000000000000000081525081526020016040518060400160405280600681526020017f4567676d616e000000000000000000000000000000000000000000000000000081525081526020016040518060400160405280600581526020017f5461696c7300000000000000000000000000000000000000000000000000000081525081526020016040518060400160405280600881526020017f4b6e75636b6c657300000000000000000000000000000000000000000000000081525081526020016040518060400160405280600481526020017f46616e670000000000000000000000000000000000000000000000000000000081525081526020016040518060400160405280600781526020017f4368616f74697800000000000000000000000000000000000000000000000000815250815250600c906006620004e2929190620008bd565b506040518060c001604052806040518060400160405280600381526020017f726564000000000000000000000000000000000000000000000000000000000081525081526020016040518060400160405280600781526020017f233038433241380000000000000000000000000000000000000000000000000081525081526020016040518060400160405280600581526020017f626c61636b00000000000000000000000000000000000000000000000000000081525081526020016040518060400160405280600681526020017f79656c6c6f77000000000000000000000000000000000000000000000000000081525081526020016040518060400160405280600481526020017f626c75650000000000000000000000000000000000000000000000000000000081525081526020016040518060400160405280600581526020017f677265656e000000000000000000000000000000000000000000000000000000815250815250600d90600662000660929190620008bd565b503480156200066e57600080fd5b506040518060400160405280600981526020017f5371756172654e465400000000000000000000000000000000000000000000008152506040518060400160405280600681526020017f53515541524500000000000000000000000000000000000000000000000000008152508160009080519060200190620006f39291906200082c565b5080600190805190602001906200070c9291906200082c565b5050506200075a6040518060400160405280601e81526020017f54686973206973206d79204e465420636f6e74726163742e20576f61682100008152506200076060201b620012521760201c565b62000ade565b6200080081604051602401620007779190620009f2565b6040516020818303038152906040527f41304fac000000000000000000000000000000000000000000000000000000007bffffffffffffffffffffffffffffffffffffffffffffffffffffffff19166020820180517bffffffffffffffffffffffffffffffffffffffffffffffffffffffff83818316178352505050506200080360201b60201c565b50565b60008151905060006a636f6e736f6c652e6c6f679050602083016000808483855afa5050505050565b8280546200083a9062000a68565b90600052602060002090601f0160209004810192826200085e5760008555620008aa565b82601f106200087957805160ff1916838001178555620008aa565b82800160010185558215620008aa579182015b82811115620008a95782518255916020019190600101906200088c565b5b509050620008b9919062000924565b5090565b82805482825590600052602060002090810192821562000911579160200282015b8281111562000910578251829080519060200190620008ff9291906200082c565b5091602001919060010190620008de565b5b50905062000920919062000943565b5090565b5b808211156200093f57600081600090555060010162000925565b5090565b5b808211156200096757600081816200095d91906200096b565b5060010162000944565b5090565b508054620009799062000a68565b6000825580601f106200098d5750620009ae565b601f016020900490600052602060002090810190620009ad919062000924565b5b50565b6000620009be8262000a16565b620009ca818562000a21565b9350620009dc81856020860162000a32565b620009e78162000acd565b840191505092915050565b6000602082019050818103600083015262000a0e8184620009b1565b905092915050565b600081519050919050565b600082825260208201905092915050565b60005b8381101562000a5257808201518184015260208101905062000a35565b8381111562000a62576000848401525b50505050565b6000600282049050600182168062000a8157607f821691505b6020821081141562000a985762000a9762000a9e565b5b50919050565b7f4e487b7100000000000000000000000000000000000000000000000000000000600052602260045260246000fd5b6000601f19601f8301169050919050565b613ae38062000aee6000396000f3fe608060405234801561001057600080fd5b50600436106101165760003560e01c806370a08231116100a2578063b88d4fde11610071578063b88d4fde14610317578063c575757a14610333578063c87b56dd14610363578063de9d132f14610393578063e985e9c51461039d57610116565b806370a082311461027d57806395d89b41146102ad578063a22cb465146102cb578063b187301f146102e757610116565b806323b872dd116100e957806323b872dd146101b55780632de38d68146101d157806342842e0e14610201578063514dc8c61461021d5780636352211e1461024d57610116565b806301ffc9a71461011b57806306fdde031461014b578063081812fc14610169578063095ea7b314610199575b600080fd5b61013560048036038101906101309190612633565b6103cd565b6040516101429190613359565b60405180910390f35b6101536104af565b6040516101609190613374565b60405180910390f35b610183600480360381019061017e9190612685565b610541565b60405161019091906132c9565b60405180910390f35b6101b360048036038101906101ae91906125f7565b6105c6565b005b6101cf60048036038101906101ca91906124f1565b6106de565b005b6101eb60048036038101906101e69190612685565b61073e565b6040516101f89190613374565b60405180910390f35b61021b600480360381019061021691906124f1565b61085c565b005b61023760048036038101906102329190612685565b61087c565b6040516102449190613374565b60405180910390f35b61026760048036038101906102629190612685565b61099a565b60405161027491906132c9565b60405180910390f35b6102976004803603810190610292919061248c565b610a4c565b6040516102a491906135d4565b60405180910390f35b6102b5610b04565b6040516102c29190613374565b60405180910390f35b6102e560048036038101906102e091906125bb565b610b96565b005b61030160048036038101906102fc9190612685565b610bac565b60405161030e9190613374565b60405180910390f35b610331600480360381019061032c9190612540565b610cca565b005b61034d60048036038101906103489190612685565b610d2c565b60405161035a9190613374565b60405180910390f35b61037d60048036038101906103789190612685565b610e4a565b60405161038a9190613374565b60405180910390f35b61039b610f9c565b005b6103b760048036038101906103b291906124b5565b6111be565b6040516103c49190613359565b60405180910390f35b60007f80ac58cd000000000000000000000000000000000000000000000000000000007bffffffffffffffffffffffffffffffffffffffffffffffffffffffff1916827bffffffffffffffffffffffffffffffffffffffffffffffffffffffff1916148061049857507f5b5e139f000000000000000000000000000000000000000000000000000000007bffffffffffffffffffffffffffffffffffffffffffffffffffffffff1916827bffffffffffffffffffffffffffffffffffffffffffffffffffffffff1916145b806104a857506104a7826112eb565b5b9050919050565b6060600080546104be90613873565b80601f01602080910402602001604051908101604052809291908181526020018280546104ea90613873565b80156105375780601f1061050c57610100808354040283529160200191610537565b820191906000526020600020905b81548152906001019060200180831161051a57829003601f168201915b5050505050905090565b600061054c82611355565b61058b576040517f08c379a000000000000000000000000000000000000000000000000000000000815260040161058290613534565b60405180910390fd5b6004600083815260200190815260200160002060009054906101000a900473ffffffffffffffffffffffffffffffffffffffff169050919050565b60006105d18261099a565b90508073ffffffffffffffffffffffffffffffffffffffff168373ffffffffffffffffffffffffffffffffffffffff161415610642576040517f08c379a000000000000000000000000000000000000000000000000000000000815260040161063990613594565b60405180910390fd5b8073ffffffffffffffffffffffffffffffffffffffff166106616113c1565b73ffffffffffffffffffffffffffffffffffffffff161480610690575061068f8161068a6113c1565b6111be565b5b6106cf576040517f08c379a00000000000000000000000000000000000000000000000000000000081526004016106c690613474565b60405180910390fd5b6106d983836113c9565b505050565b6106ef6106e96113c1565b82611482565b61072e576040517f08c379a0000000000000000000000000000000000000000000000000000000008152600401610725906135b4565b60405180910390fd5b610739838383611560565b505050565b6060600061077261074e846117bc565b60405160200161075e9190613263565b604051602081830303815290604052611969565b9050600a805490508161078591906138ee565b9050600a81815481106107c1577f4e487b7100000000000000000000000000000000000000000000000000000000600052603260045260246000fd5b9060005260206000200180546107d690613873565b80601f016020809104026020016040519081016040528092919081815260200182805461080290613873565b801561084f5780601f106108245761010080835404028352916020019161084f565b820191906000526020600020905b81548152906001019060200180831161083257829003601f168201915b5050505050915050919050565b61087783838360405180602001604052806000815250610cca565b505050565b606060006108b061088c846117bc565b60405160200161089c91906132a7565b604051602081830303815290604052611969565b9050600d80549050816108c391906138ee565b9050600d81815481106108ff577f4e487b7100000000000000000000000000000000000000000000000000000000600052603260045260246000fd5b90600052602060002001805461091490613873565b80601f016020809104026020016040519081016040528092919081815260200182805461094090613873565b801561098d5780601f106109625761010080835404028352916020019161098d565b820191906000526020600020905b81548152906001019060200180831161097057829003601f168201915b5050505050915050919050565b6000806002600084815260200190815260200160002060009054906101000a900473ffffffffffffffffffffffffffffffffffffffff169050600073ffffffffffffffffffffffffffffffffffffffff168173ffffffffffffffffffffffffffffffffffffffff161415610a43576040517f08c379a0000000000000000000000000000000000000000000000000000000008152600401610a3a906134b4565b60405180910390fd5b80915050919050565b60008073ffffffffffffffffffffffffffffffffffffffff168273ffffffffffffffffffffffffffffffffffffffff161415610abd576040517f08c379a0000000000000000000000000000000000000000000000000000000008152600401610ab490613494565b60405180910390fd5b600360008373ffffffffffffffffffffffffffffffffffffffff1673ffffffffffffffffffffffffffffffffffffffff168152602001908152602001600020549050919050565b606060018054610b1390613873565b80601f0160208091040260200160405190810160405280929190818152602001828054610b3f90613873565b8015610b8c5780601f10610b6157610100808354040283529160200191610b8c565b820191906000526020600020905b815481529060010190602001808311610b6f57829003601f168201915b5050505050905090565b610ba8610ba16113c1565b838361199c565b5050565b60606000610be0610bbc846117bc565b604051602001610bcc91906131fc565b604051602081830303815290604052611969565b9050600b8054905081610bf391906138ee565b9050600b8181548110610c2f577f4e487b7100000000000000000000000000000000000000000000000000000000600052603260045260246000fd5b906000526020600020018054610c4490613873565b80601f0160208091040260200160405190810160405280929190818152602001828054610c7090613873565b8015610cbd5780601f10610c9257610100808354040283529160200191610cbd565b820191906000526020600020905b815481529060010190602001808311610ca057829003601f168201915b5050505050915050919050565b610cdb610cd56113c1565b83611482565b610d1a576040517f08c379a0000000000000000000000000000000000000000000000000000000008152600401610d11906135b4565b60405180910390fd5b610d2684848484611b09565b50505050565b60606000610d60610d3c846117bc565b604051602001610d4c91906131da565b604051602081830303815290604052611969565b9050600c8054905081610d7391906138ee565b9050600c8181548110610daf577f4e487b7100000000000000000000000000000000000000000000000000000000600052603260045260246000fd5b906000526020600020018054610dc490613873565b80601f0160208091040260200160405190810160405280929190818152602001828054610df090613873565b8015610e3d5780601f10610e1257610100808354040283529160200191610e3d565b820191906000526020600020905b815481529060010190602001808311610e2057829003601f168201915b5050505050915050919050565b6060610e5582611355565b610e94576040517f08c379a0000000000000000000000000000000000000000000000000000000008152600401610e8b90613514565b60405180910390fd5b6000600660008481526020019081526020016000208054610eb490613873565b80601f0160208091040260200160405190810160405280929190818152602001828054610ee090613873565b8015610f2d5780601f10610f0257610100808354040283529160200191610f2d565b820191906000526020600020905b815481529060010190602001808311610f1057829003601f168201915b505050505090506000610f3e611b65565b9050600081511415610f54578192505050610f97565b600082511115610f89578082604051602001610f7192919061311a565b60405160208183030381529060405292505050610f97565b610f9284611b7c565b925050505b919050565b6000610fa86007611c23565b90506000610fb58261073e565b90506000610fc283610bac565b90506000610fcf84610d2c565b90506000838383604051602001610fe89392919061313e565b604051602081830303815290604052905060006110048661087c565b90506000600882600985604051602001611021949392919061316f565b604051602081830303815290604052905060006110668461104184611c31565b60405160200161105292919061321e565b604051602081830303815290604052611c31565b905060008160405160200161107b9190613285565b60405160208183030381529060405290506110ca6040518060400160405280601581526020017f0a2d2d2d2d2d2d2d2d2d2d2d2d2d2d2d2d2d2d2d2d0000000000000000000000815250611252565b6110d383611252565b6110fb816040516020016110e791906131b8565b604051602081830303815290604052611252565b6111396040518060400160405280601581526020017f2d2d2d2d2d2d2d2d2d2d2d2d2d2d2d2d2d2d2d2d0a0000000000000000000000815250611252565b611143338a611dd0565b61114d8982611dee565b6111576007611e62565b61117a604051806060016040528060258152602001613a49602591398a33611e78565b7febb98688741ffa4c7589bf325de30cf7becb63de567842e1ccdb6cb949fdc82c338a6040516111ab929190613330565b60405180910390a1505050505050505050565b6000600560008473ffffffffffffffffffffffffffffffffffffffff1673ffffffffffffffffffffffffffffffffffffffff16815260200190815260200160002060008373ffffffffffffffffffffffffffffffffffffffff1673ffffffffffffffffffffffffffffffffffffffff16815260200190815260200160002060009054906101000a900460ff16905092915050565b6112e8816040516024016112669190613374565b6040516020818303038152906040527f41304fac000000000000000000000000000000000000000000000000000000007bffffffffffffffffffffffffffffffffffffffffffffffffffffffff19166020820180517bffffffffffffffffffffffffffffffffffffffffffffffffffffffff8381831617835250505050611f17565b50565b60007f01ffc9a7000000000000000000000000000000000000000000000000000000007bffffffffffffffffffffffffffffffffffffffffffffffffffffffff1916827bffffffffffffffffffffffffffffffffffffffffffffffffffffffff1916149050919050565b60008073ffffffffffffffffffffffffffffffffffffffff166002600084815260200190815260200160002060009054906101000a900473ffffffffffffffffffffffffffffffffffffffff1673ffffffffffffffffffffffffffffffffffffffff1614159050919050565b600033905090565b816004600083815260200190815260200160002060006101000a81548173ffffffffffffffffffffffffffffffffffffffff021916908373ffffffffffffffffffffffffffffffffffffffff160217905550808273ffffffffffffffffffffffffffffffffffffffff1661143c8361099a565b73ffffffffffffffffffffffffffffffffffffffff167f8c5be1e5ebec7d5bd14f71427d1e84f3dd0314c0f7b2291e5b200ac8c7c3b92560405160405180910390a45050565b600061148d82611355565b6114cc576040517f08c379a00000000000000000000000000000000000000000000000000000000081526004016114c390613454565b60405180910390fd5b60006114d78361099a565b90508073ffffffffffffffffffffffffffffffffffffffff168473ffffffffffffffffffffffffffffffffffffffff16148061154657508373ffffffffffffffffffffffffffffffffffffffff1661152e84610541565b73ffffffffffffffffffffffffffffffffffffffff16145b80611557575061155681856111be565b5b91505092915050565b8273ffffffffffffffffffffffffffffffffffffffff166115808261099a565b73ffffffffffffffffffffffffffffffffffffffff16146115d6576040517f08c379a00000000000000000000000000000000000000000000000000000000081526004016115cd90613554565b60405180910390fd5b600073ffffffffffffffffffffffffffffffffffffffff168273ffffffffffffffffffffffffffffffffffffffff161415611646576040517f08c379a000000000000000000000000000000000000000000000000000000000815260040161163d90613414565b60405180910390fd5b611651838383611f40565b61165c6000826113c9565b6001600360008573ffffffffffffffffffffffffffffffffffffffff1673ffffffffffffffffffffffffffffffffffffffff16815260200190815260200160002060008282546116ac9190613789565b925050819055506001600360008473ffffffffffffffffffffffffffffffffffffffff1673ffffffffffffffffffffffffffffffffffffffff168152602001908152602001600020600082825461170391906136a8565b92505081905550816002600083815260200190815260200160002060006101000a81548173ffffffffffffffffffffffffffffffffffffffff021916908373ffffffffffffffffffffffffffffffffffffffff160217905550808273ffffffffffffffffffffffffffffffffffffffff168473ffffffffffffffffffffffffffffffffffffffff167fddf252ad1be2c89b69c2b068fc378daa952ba7f163c4a11628f55a4df523b3ef60405160405180910390a4505050565b60606000821415611804576040518060400160405280600181526020017f30000000000000000000000000000000000000000000000000000000000000008152509050611964565b600082905060005b6000821461183657808061181f906138a5565b915050600a8261182f91906136fe565b915061180c565b60008167ffffffffffffffff811115611878577f4e487b7100000000000000000000000000000000000000000000000000000000600052604160045260246000fd5b6040519080825280601f01601f1916602001820160405280156118aa5781602001600182028036833780820191505090505b5090505b6000851461195d576001826118c39190613789565b9150600a856118d291906138ee565b60306118de91906136a8565b60f81b81838151811061191a577f4e487b7100000000000000000000000000000000000000000000000000000000600052603260045260246000fd5b60200101907effffffffffffffffffffffffffffffffffffffffffffffffffffffffffffff1916908160001a905350600a8561195691906136fe565b94506118ae565b8093505050505b919050565b60008160405160200161197c9190613103565b6040516020818303038152906040528051906020012060001c9050919050565b8173ffffffffffffffffffffffffffffffffffffffff168373ffffffffffffffffffffffffffffffffffffffff161415611a0b576040517f08c379a0000000000000000000000000000000000000000000000000000000008152600401611a0290613434565b60405180910390fd5b80600560008573ffffffffffffffffffffffffffffffffffffffff1673ffffffffffffffffffffffffffffffffffffffff16815260200190815260200160002060008473ffffffffffffffffffffffffffffffffffffffff1673ffffffffffffffffffffffffffffffffffffffff16815260200190815260200160002060006101000a81548160ff0219169083151502179055508173ffffffffffffffffffffffffffffffffffffffff168373ffffffffffffffffffffffffffffffffffffffff167f17307eab39ab6107e8899845ad3d59bd9653f200f220920489ca2b5937696c3183604051611afc9190613359565b60405180910390a3505050565b611b14848484611560565b611b2084848484611f45565b611b5f576040517f08c379a0000000000000000000000000000000000000000000000000000000008152600401611b56906133d4565b60405180910390fd5b50505050565b606060405180602001604052806000815250905090565b6060611b8782611355565b611bc6576040517f08c379a0000000000000000000000000000000000000000000000000000000008152600401611bbd90613574565b60405180910390fd5b6000611bd0611b65565b90506000815111611bf05760405180602001604052806000815250611c1b565b80611bfa846117bc565b604051602001611c0b92919061311a565b6040516020818303038152906040525b915050919050565b600081600001549050919050565b6060600082511415611c5457604051806020016040528060008152509050611dcb565b6000604051806060016040528060408152602001613a6e6040913990506000600360028551611c8391906136a8565b611c8d91906136fe565b6004611c99919061372f565b90506000602082611caa91906136a8565b67ffffffffffffffff811115611ce9577f4e487b7100000000000000000000000000000000000000000000000000000000600052604160045260246000fd5b6040519080825280601f01601f191660200182016040528015611d1b5781602001600182028036833780820191505090505b509050818152600183018586518101602084015b81831015611d8a576003830192508251603f8160121c168501518253600182019150603f81600c1c168501518253600182019150603f8160061c168501518253600182019150603f8116850151825360018201915050611d2f565b600389510660018114611da45760028114611db457611dbf565b613d3d60f01b6002830352611dbf565b603d60f81b60018303525b50505050508093505050505b919050565b611dea8282604051806020016040528060008152506120dc565b5050565b611df782611355565b611e36576040517f08c379a0000000000000000000000000000000000000000000000000000000008152600401611e2d906134d4565b60405180910390fd5b80600660008481526020019081526020016000209080519060200190611e5d929190612318565b505050565b6001816000016000828254019250508190555050565b611f12838383604051602401611e9093929190613396565b6040516020818303038152906040527fe3849f79000000000000000000000000000000000000000000000000000000007bffffffffffffffffffffffffffffffffffffffffffffffffffffffff19166020820180517bffffffffffffffffffffffffffffffffffffffffffffffffffffffff8381831617835250505050611f17565b505050565b60008151905060006a636f6e736f6c652e6c6f679050602083016000808483855afa5050505050565b505050565b6000611f668473ffffffffffffffffffffffffffffffffffffffff16612137565b156120cf578373ffffffffffffffffffffffffffffffffffffffff1663150b7a02611f8f6113c1565b8786866040518563ffffffff1660e01b8152600401611fb194939291906132e4565b602060405180830381600087803b158015611fcb57600080fd5b505af1925050508015611ffc57506040513d601f19601f82011682018060405250810190611ff9919061265c565b60015b61207f573d806000811461202c576040519150601f19603f3d011682016040523d82523d6000602084013e612031565b606091505b50600081511415612077576040517f08c379a000000000000000000000000000000000000000000000000000000000815260040161206e906133d4565b60405180910390fd5b805181602001fd5b63150b7a0260e01b7bffffffffffffffffffffffffffffffffffffffffffffffffffffffff1916817bffffffffffffffffffffffffffffffffffffffffffffffffffffffff1916149150506120d4565b600190505b949350505050565b6120e6838361214a565b6120f36000848484611f45565b612132576040517f08c379a0000000000000000000000000000000000000000000000000000000008152600401612129906133d4565b60405180910390fd5b505050565b600080823b905060008111915050919050565b600073ffffffffffffffffffffffffffffffffffffffff168273ffffffffffffffffffffffffffffffffffffffff1614156121ba576040517f08c379a00000000000000000000000000000000000000000000000000000000081526004016121b1906134f4565b60405180910390fd5b6121c381611355565b15612203576040517f08c379a00000000000000000000000000000000000000000000000000000000081526004016121fa906133f4565b60405180910390fd5b61220f60008383611f40565b6001600360008473ffffffffffffffffffffffffffffffffffffffff1673ffffffffffffffffffffffffffffffffffffffff168152602001908152602001600020600082825461225f91906136a8565b92505081905550816002600083815260200190815260200160002060006101000a81548173ffffffffffffffffffffffffffffffffffffffff021916908373ffffffffffffffffffffffffffffffffffffffff160217905550808273ffffffffffffffffffffffffffffffffffffffff16600073ffffffffffffffffffffffffffffffffffffffff167fddf252ad1be2c89b69c2b068fc378daa952ba7f163c4a11628f55a4df523b3ef60405160405180910390a45050565b82805461232490613873565b90600052602060002090601f016020900481019282612346576000855561238d565b82601f1061235f57805160ff191683800117855561238d565b8280016001018555821561238d579182015b8281111561238c578251825591602001919060010190612371565b5b50905061239a919061239e565b5090565b5b808211156123b757600081600090555060010161239f565b5090565b60006123ce6123c984613620565b6135ef565b9050828152602081018484840111156123e657600080fd5b6123f1848285613831565b509392505050565b600081359050612408816139ec565b92915050565b60008135905061241d81613a03565b92915050565b60008135905061243281613a1a565b92915050565b60008151905061244781613a1a565b92915050565b600082601f83011261245e57600080fd5b813561246e8482602086016123bb565b91505092915050565b60008135905061248681613a31565b92915050565b60006020828403121561249e57600080fd5b60006124ac848285016123f9565b91505092915050565b600080604083850312156124c857600080fd5b60006124d6858286016123f9565b92505060206124e7858286016123f9565b9150509250929050565b60008060006060848603121561250657600080fd5b6000612514868287016123f9565b9350506020612525868287016123f9565b925050604061253686828701612477565b9150509250925092565b6000806000806080858703121561255657600080fd5b6000612564878288016123f9565b9450506020612575878288016123f9565b935050604061258687828801612477565b925050606085013567ffffffffffffffff8111156125a357600080fd5b6125af8782880161244d565b91505092959194509250565b600080604083850312156125ce57600080fd5b60006125dc858286016123f9565b92505060206125ed8582860161240e565b9150509250929050565b6000806040838503121561260a57600080fd5b6000612618858286016123f9565b925050602061262985828601612477565b9150509250929050565b60006020828403121561264557600080fd5b600061265384828501612423565b91505092915050565b60006020828403121561266e57600080fd5b600061267c84828501612438565b91505092915050565b60006020828403121561269757600080fd5b60006126a584828501612477565b91505092915050565b6126b7816137bd565b82525050565b6126c6816137cf565b82525050565b60006126d782613665565b6126e1818561367b565b93506126f1818560208601613840565b6126fa816139db565b840191505092915050565b600061271082613670565b61271a818561368c565b935061272a818560208601613840565b612733816139db565b840191505092915050565b600061274982613670565b612753818561369d565b9350612763818560208601613840565b80840191505092915050565b6000815461277c81613873565b612786818661369d565b945060018216600081146127a157600181146127b2576127e5565b60ff198316865281860193506127e5565b6127bb85613650565b60005b838110156127dd578154818901526001820191506020810190506127be565b838801955050505b50505092915050565b60006127fb60258361369d565b91507f68747470733a2f2f6e6674707265766965772e30786465762e636f6465732f3f60008301527f636f64653d0000000000000000000000000000000000000000000000000000006020830152602582019050919050565b600061286160328361368c565b91507f4552433732313a207472616e7366657220746f206e6f6e20455243373231526560008301527f63656976657220696d706c656d656e74657200000000000000000000000000006020830152604082019050919050565b60006128c7601c8361368c565b91507f4552433732313a20746f6b656e20616c7265616479206d696e746564000000006000830152602082019050919050565b6000612907600a8361369d565b91507f54484952445f574f5244000000000000000000000000000000000000000000006000830152600a82019050919050565b600061294760248361368c565b91507f4552433732313a207472616e7366657220746f20746865207a65726f2061646460008301527f72657373000000000000000000000000000000000000000000000000000000006020830152604082019050919050565b60006129ad60198361368c565b91507f4552433732313a20617070726f766520746f2063616c6c6572000000000000006000830152602082019050919050565b60006129ed60638361369d565b91507f222c20226465736372697074696f6e223a20224120686967686c79206163636c60008301527f61696d656420636f6c6c656374696f6e206f6620737175617265732e222c202260208301527f696d616765223a2022646174613a696d6167652f7376672b786d6c3b6261736560408301527f36342c00000000000000000000000000000000000000000000000000000000006060830152606382019050919050565b6000612a9f600b8361369d565b91507f5345434f4e445f574f52440000000000000000000000000000000000000000006000830152600b82019050919050565b6000612adf602c8361368c565b91507f4552433732313a206f70657261746f7220717565727920666f72206e6f6e657860008301527f697374656e7420746f6b656e00000000000000000000000000000000000000006020830152604082019050919050565b6000612b45600d8361369d565b91507f3c2f746578743e3c2f7376673e000000000000000000000000000000000000006000830152600d82019050919050565b6000612b8560388361368c565b91507f4552433732313a20617070726f76652063616c6c6572206973206e6f74206f7760008301527f6e6572206e6f7220617070726f76656420666f7220616c6c00000000000000006020830152604082019050919050565b6000612beb602a8361368c565b91507f4552433732313a2062616c616e636520717565727920666f7220746865207a6560008301527f726f2061646472657373000000000000000000000000000000000000000000006020830152604082019050919050565b6000612c5160298361368c565b91507f4552433732313a206f776e657220717565727920666f72206e6f6e657869737460008301527f656e7420746f6b656e00000000000000000000000000000000000000000000006020830152604082019050919050565b6000612cb7602e8361368c565b91507f45524337323155524953746f726167653a2055524920736574206f66206e6f6e60008301527f6578697374656e7420746f6b656e0000000000000000000000000000000000006020830152604082019050919050565b6000612d1d60028361369d565b91507f227d0000000000000000000000000000000000000000000000000000000000006000830152600282019050919050565b6000612d5d60208361368c565b91507f4552433732313a206d696e7420746f20746865207a65726f20616464726573736000830152602082019050919050565b6000612d9d60318361368c565b91507f45524337323155524953746f726167653a2055524920717565727920666f722060008301527f6e6f6e6578697374656e7420746f6b656e0000000000000000000000000000006020830152604082019050919050565b6000612e03602c8361368c565b91507f4552433732313a20617070726f76656420717565727920666f72206e6f6e657860008301527f697374656e7420746f6b656e00000000000000000000000000000000000000006020830152604082019050919050565b6000612e6960298361368c565b91507f4552433732313a207472616e73666572206f6620746f6b656e2074686174206960008301527f73206e6f74206f776e00000000000000000000000000000000000000000000006020830152604082019050919050565b6000612ecf602f8361368c565b91507f4552433732314d657461646174613a2055524920717565727920666f72206e6f60008301527f6e6578697374656e7420746f6b656e00000000000000000000000000000000006020830152604082019050919050565b6000612f35600a8361369d565b91507f7b226e616d65223a2022000000000000000000000000000000000000000000006000830152600a82019050919050565b6000612f7560218361368c565b91507f4552433732313a20617070726f76616c20746f2063757272656e74206f776e6560008301527f72000000000000000000000000000000000000000000000000000000000000006020830152604082019050919050565b6000612fdb600a8361369d565b91507f46495253545f574f5244000000000000000000000000000000000000000000006000830152600a82019050919050565b600061301b601d8361369d565b91507f646174613a6170706c69636174696f6e2f6a736f6e3b6261736536342c0000006000830152601d82019050919050565b600061305b60318361368c565b91507f4552433732313a207472616e736665722063616c6c6572206973206e6f74206f60008301527f776e6572206e6f7220617070726f7665640000000000000000000000000000006020830152604082019050919050565b60006130c160058361369d565b91507f434f4c4f520000000000000000000000000000000000000000000000000000006000830152600582019050919050565b6130fd81613827565b82525050565b600061310f828461273e565b915081905092915050565b6000613126828561273e565b9150613132828461273e565b91508190509392505050565b600061314a828661273e565b9150613156828561273e565b9150613162828461273e565b9150819050949350505050565b600061317b828761276f565b9150613187828661273e565b9150613193828561276f565b915061319f828461273e565b91506131aa82612b38565b915081905095945050505050565b60006131c3826127ee565b91506131cf828461273e565b915081905092915050565b60006131e5826128fa565b91506131f1828461273e565b915081905092915050565b600061320782612a92565b9150613213828461273e565b915081905092915050565b600061322982612f28565b9150613235828561273e565b9150613240826129e0565b915061324c828461273e565b915061325782612d10565b91508190509392505050565b600061326e82612fce565b915061327a828461273e565b915081905092915050565b60006132908261300e565b915061329c828461273e565b915081905092915050565b60006132b2826130b4565b91506132be828461273e565b915081905092915050565b60006020820190506132de60008301846126ae565b92915050565b60006080820190506132f960008301876126ae565b61330660208301866126ae565b61331360408301856130f4565b818103606083015261332581846126cc565b905095945050505050565b600060408201905061334560008301856126ae565b61335260208301846130f4565b9392505050565b600060208201905061336e60008301846126bd565b92915050565b6000602082019050818103600083015261338e8184612705565b905092915050565b600060608201905081810360008301526133b08186612705565b90506133bf60208301856130f4565b6133cc60408301846126ae565b949350505050565b600060208201905081810360008301526133ed81612854565b9050919050565b6000602082019050818103600083015261340d816128ba565b9050919050565b6000602082019050818103600083015261342d8161293a565b9050919050565b6000602082019050818103600083015261344d816129a0565b9050919050565b6000602082019050818103600083015261346d81612ad2565b9050919050565b6000602082019050818103600083015261348d81612b78565b9050919050565b600060208201905081810360008301526134ad81612bde565b9050919050565b600060208201905081810360008301526134cd81612c44565b9050919050565b600060208201905081810360008301526134ed81612caa565b9050919050565b6000602082019050818103600083015261350d81612d50565b9050919050565b6000602082019050818103600083015261352d81612d90565b9050919050565b6000602082019050818103600083015261354d81612df6565b9050919050565b6000602082019050818103600083015261356d81612e5c565b9050919050565b6000602082019050818103600083015261358d81612ec2565b9050919050565b600060208201905081810360008301526135ad81612f68565b9050919050565b600060208201905081810360008301526135cd8161304e565b9050919050565b60006020820190506135e960008301846130f4565b92915050565b6000604051905081810181811067ffffffffffffffff82111715613616576136156139ac565b5b8060405250919050565b600067ffffffffffffffff82111561363b5761363a6139ac565b5b601f19601f8301169050602081019050919050565b60008190508160005260206000209050919050565b600081519050919050565b600081519050919050565b600082825260208201905092915050565b600082825260208201905092915050565b600081905092915050565b60006136b382613827565b91506136be83613827565b9250827fffffffffffffffffffffffffffffffffffffffffffffffffffffffffffffffff038211156136f3576136f261391f565b5b828201905092915050565b600061370982613827565b915061371483613827565b9250826137245761372361394e565b5b828204905092915050565b600061373a82613827565b915061374583613827565b9250817fffffffffffffffffffffffffffffffffffffffffffffffffffffffffffffffff048311821515161561377e5761377d61391f565b5b828202905092915050565b600061379482613827565b915061379f83613827565b9250828210156137b2576137b161391f565b5b828203905092915050565b60006137c882613807565b9050919050565b60008115159050919050565b60007fffffffff0000000000000000000000000000000000000000000000000000000082169050919050565b600073ffffffffffffffffffffffffffffffffffffffff82169050919050565b6000819050919050565b82818337600083830152505050565b60005b8381101561385e578082015181840152602081019050613843565b8381111561386d576000848401525b50505050565b6000600282049050600182168061388b57607f821691505b6020821081141561389f5761389e61397d565b5b50919050565b60006138b082613827565b91507fffffffffffffffffffffffffffffffffffffffffffffffffffffffffffffffff8214156138e3576138e261391f565b5b600182019050919050565b60006138f982613827565b915061390483613827565b9250826139145761391361394e565b5b828206905092915050565b7f4e487b7100000000000000000000000000000000000000000000000000000000600052601160045260246000fd5b7f4e487b7100000000000000000000000000000000000000000000000000000000600052601260045260246000fd5b7f4e487b7100000000000000000000000000000000000000000000000000000000600052602260045260246000fd5b7f4e487b7100000000000000000000000000000000000000000000000000000000600052604160045260246000fd5b6000601f19601f8301169050919050565b6139f5816137bd565b8114613a0057600080fd5b50565b613a0c816137cf565b8114613a1757600080fd5b50565b613a23816137db565b8114613a2e57600080fd5b50565b613a3a81613827565b8114613a4557600080fd5b5056fe416e204e465420772f20494420257320686173206265656e206d696e74656420746f2025734142434445464748494a4b4c4d4e4f505152535455565758595a6162636465666768696a6b6c6d6e6f707172737475767778797a303132333435363738392b2fa26469706673582212201bd9908eb6ef647757b3491ddfc2ea389025066efc2b59a432d17b879d6c90a364736f6c634300080000333c73766720786d6c6e733d27687474703a2f2f7777772e77332e6f72672f323030302f73766727207072657365727665417370656374526174696f3d27784d696e594d696e206d656574272076696577426f783d273020302033353020333530273e3c7374796c653e2e62617365207b2066696c6c3a2077686974653b20666f6e742d66616d696c793a2073657269663b20666f6e742d73697a653a20323470783b207d3c2f7374796c653e3c726563742077696474683d273130302527206865696768743d2731303025272066696c6c3d27272f3e3c7465787420783d273530252720793d273530252720636c6173733d27626173652720646f6d696e616e742d626173656c696e653d276d6964646c652720746578742d616e63686f723d276d6964646c65273e",
  "linkReferences": {},
  "deployedLinkReferences": {}
}